:020000040800F2
:1000000050080020D5010008DD010008DF010008CC
:10001000E1010008E3010008E5010008000000001C
:10002000000000000000000000000000E7010008E0
:10003000E901000800000000EB010008ED010008E4
:100040005D1D0008EF010008EF010008EF01000846
:10005000EF010008EF0100089D050008EF0100080E
:10006000EF010008EF010008EF010008EF010008B0
:10007000EF010008EF010008EF010008EF010008A0
:10008000EF010008EF010008EF010008EF01000890
:10009000EF010008EF010008EF01000899060008D1
:1000A000EF010008EF010008EF010008EF01000870
:1000B000EF01000855180008EF010008EF010008E3
:1000C000EF010008EF010008EF010008EF01000850
:1000D000EF010008C51A0008EF0100084D1B0008D9
:1000E0008D060008EF010008EF010008EF0100088D
:1000F000EF010008EF010008EF010008EF01000820
:10010000EF010008EF010008EF010008EF0100080F
:10011000EF010008EF010008EF010008EF010008FF
:10012000EF010008EF010008EF010008EF010008EF
:1001300000F002F800F03FF80AA090E8000C8244BA
:100140008344AAF10107DA4501D100F034F8AFF297
:10015000090EBAE80F0013F0010F18BFFB1A43F0A5
:1001600001031847B0280000D0280000103A24BF2F
:1001700078C878C1FAD8520724BF30C830C144BF0C
:1001800004680C607047000000230024002500264E
:10019000103A28BF78C1FBD8520728BF30C148BFEA
:1001A0000B607047642900F07780002070471FB50E
:1001B0001FBD10B510BD00F037F91146FFF7F7FF6E
:1001C00001F012FF00F055F903B4FFF7F2FF03BC92
:1001D00001F038FE0948804709480047FEE7FEE77E
:1001E000FEE7FEE7FEE7FEE7FEE7FEE7FEE7FEE7E7
:1001F00004480549054A064B70470000F5170008FA
:100200003101000850020020500800205004002056
:1002100050040020704700000FB4044910B503AA31
:10022000029800F0D3F810BC5DF814FB1000002019
:100230002DE9F0410E460446002020622046E16888
:10024000884730B3252805D0D4E901219047206A9A
:10025000401CF2E7E168204600278847050018D0D7
:10026000A5F14100192802D820354FF40067324625
:10027000294620462760FFF795FF40B1012804D0AA
:10028000F61D26F007060836D8E7361DD6E72846BD
:10029000DAE7206ABDE8F0812DE9F0410646002446
:1002A00010687529314616A510D0AFF300800028DC
:1002B00002DA404213A507E031688A0701D512A58A
:1002C00002E0490704D511A5012401E0AFF3008045
:1002D00000210A2206F1240709E0B0FBF2FCB0FB82
:1002E000F2F302FB1C00303078541846491C0028F9
:1002F000F3D123462A463046BDE8F04100F00CB861
:10030000000000002D0000002B0000002000000075
:1003100070477047704770472DE9F0470D46994682
:100320009246044600F124080168880604D5E06975
:1003300021F01001216000E00120A84201DD471BEF
:1003400000E00027A1697A1902EB0900081AA061F0
:100350002078C00602D42046AFF30080002608E0D3
:10036000D4E901211AF806009047206A401C761C47
:1003700020624E45F4DB2078C0060AD52046AFF354
:10038000008006E0D4E9012130209047206A401C1B
:100390002062381EA7F10107F4DC07E0D4E901214F
:1003A00018F805009047206A401C2062281EA5F11D
:1003B0000105F3DC2046AFF300802078000602D56B
:1003C0000220BDE8F0870120FBE70000074B70B575
:1003D0000D467B4400F011F80446284600F020F852
:1003E00010B14FF0FF3070BD204670BD071B0000FC
:1003F00001694A1C02610878704700B58FB0CDE9E9
:1004000001310021059105497944CDE903101146D8
:100410006846FFF70DFF0FB000BD0000E5FFFFFFCE
:10042000007B00F080007047754600F029F8AE466A
:1004300005006946534620F00700854618B020B5F0
:10044000FFF7D6FEBDE820404FF000064FF0000752
:100450004FF000084FF0000B21F00701AC46ACE86C
:10046000C009ACE8C009ACE8C009ACE8C0098D46D9
:1004700070470446AFF300802046FFF7A5FE00005A
:1004800000487047EC01002070B506463F48B0F8C0
:10049000620020B900203D49A1F864000BE03B4810
:1004A000B0F86400142806DA3848B0F86400401C3C
:1004B0003649A1F864003548B0F8640058B93448AA
:1004C00002783449314801F0EFFA31480078401D94
:1004D0002F49087058E0002514E000240EE005EBD9
:1004E00085002044401D294931F8100005EB8501A5
:1004F0002144264A22F81100601CC4B2052CEEDB10
:10050000681CC5B2092DE8DB2D2222491F4801F0E5
:10051000CBFA1E48B0F86400002835DD1B48B0F85F
:100520006400052830DA1948B0F8640002280DDDAF
:10053000002409E01849601D31F81010164A401DCA
:1005400022F81010601CC4B2052CF3DB0F48B0F881
:10055000640001280CDD002408E00F4830F8141076
:100560000246601D22F81010601CC4B2052CF4DB9A
:10057000002407E0054830F81400074921F814006A
:10058000601CC4B2052CF5DB70BD00009400002097
:1005900007000020FA0000200401002010B50A2006
:1005A00001F076FC01211E4800F028FA012833D121
:1005B0001C48007808B9012000E0002019490870A3
:1005C00008460078C0B10121174801F0F4F9002075
:1005D0001649086016490870164908801649A1F89E
:1005E0006400A1F86200082314A2042100F066FE52
:1005F00017A0FFF711FE0FE000210B4801F0DBF917
:1006000001200A490860082316A20421002000F0F6
:1006100055FE19A0FFF700FE012000F0ABF810BD59
:10062000000801400500002000040040A001214214
:10063000070000200200002094000020537973740A
:10064000656D2073746172742E2E2E2000000000E0
:1006500073797374656D2073746172742E2E2E0D10
:100660000A00000053797374656D2073746F702EE7
:100670002E2E20200000000073797374656D2073A6
:10068000746F702E2E2E0D0A0000000010B54FF46E
:10069000004000F06FF810BD10B5202000F06AF89F
:1006A00010BD0EB50121084600F098FE00F026FAB4
:1006B0000521022000F0AEF82020019000208DF8E6
:1006C00008000C208DF8090001208DF80A0001A80F
:1006D00000F056F80F21002000F09CF84FF4004085
:1006E000019000208DF808000C208DF809000120F1
:1006F0008DF80A0001A800F043F80021084600F038
:1007000089F80120019000208DF8080008208DF85C
:10071000090001208DF80A0001A800F031F8062038
:100720008DF8000002208DF8010001208DF80200F4
:100730008DF80300684600F057FC17208DF8000084
:1007400002208DF8010001208DF802008DF80300D1
:10075000684600F049FC28208DF8000002208DF842
:10076000010001208DF802008DF80300684600F0BA
:100770003BFC0EBD014908607047000014040140B5
:10078000002123498279002A3AD00A461268036878
:100790009A430B461A600A1D126803689A430B1DA0
:1007A0001A60027911440A6803681A430A60184AF9
:1007B0000832126803689A43154B08331A601A1DF1
:1007C000126803689A43124B0C331A604279102A5C
:1007D0000ED11A1F126803681A430D4B08331A60B2
:1007E0001A1D126803681A43094B0C331A600DE096
:1007F0000749427911440A6803681A430A6005E010
:10080000027911440A6803689A430A60704700003D
:100810000004014030B500228B071C0F0F2303FAA0
:1008200004F20B4B8C1053F824309343084C8D107A
:1008300044F8253023468C1053F824308C07240FBD
:1008400000FA04F42343024C8D1044F8253030BDE7
:10085000080001402DE9F041024600250026002055
:1008600000230024002791F803C00CF00F0591F835
:1008700003C00CF0100CBCF1000F03D091F802C0C3
:100880004CEA050591F800C0BCF1000F31D01468A6
:1008900000202BE04FF0010C0CFA00F3B1F800C07F
:1008A0000CEA03069E4220D183004FF00F0C0CFA95
:1008B00003F7BC4305FA03FC4CEA040491F803C0B7
:1008C000BCF1280F06D14FF0010C0CFA00FCC2F865
:1008D00014C00AE091F803C0BCF1480F05D14FF0F5
:1008E000010C0CFA00FCC2F810C0401C0828D1D33F
:1008F0001460B1F800C0BCF1FF0F34DD5468002073
:100900002EE000F1080C4FF0010808FA0CF3B1F8E2
:1009100000C00CEA03069E4221D183004FF00F0C69
:100920000CFA03F7BC4305FA03FC4CEA040491F803
:1009300003C0BCF1280F05D100F1080C08FA0CF82F
:10094000C2F8148091F803C0BCF1480F07D100F140
:10095000080C4FF0010808FA0CF8C2F81080401C8F
:100960000828CED35460BDE8F0810000F0B50A46F7
:10097000002300240021002500F00046B6F1004FBE
:1009800002D11D4EF16901E01B4E7168C0F30345B1
:1009900083B200F44016B6F5401F08D121F0706113
:1009A000154E766826F07066134F7E6012E000F4F4
:1009B0008016B6F5801F06D1032606FA05F4A1437A
:1009C00041F0706106E0460D360103FA06F6B143C8
:1009D00041F0706122B1460D360103FA06F631434B
:1009E00000F00046B6F1004F02D1034EF16101E084
:1009F000014E7160F0BD0000000001400246002081
:100A000093680B400BB1012000E00020704741616A
:100A1000704701617047000010B54FF4005109485C
:100A2000FFF7F7FF4FF400410648FFF7F2FF4FF4DE
:100A300000410448FFF7EBFF4FF400510148FFF776
:100A4000E6FF10BD000C014010B54FF400510748FF
:100A5000FFF7DFFF4FF400410448FFF7D8FF4FF4E2
:100A600000410248FFF7D5FF10BD0000000C014017
:100A700010B54FF400510448FFF7CBFF4FF400517D
:100A80000148FFF7C4FF10BD000C01404CF6CC40FC
:100A900001490860704700000030004010B500F0C8
:100AA00013F810BD70B505460C4645F2555000F0E0
:100AB0001FF8284600F010F8204600F013F800F068
:100AC00003F8FFF7E3FF70BD4AF6AA20014908606A
:100AD0007047000000300040014948607047000046
:100AE000003000400149886070470000003000403D
:100AF00001490860704700000030004008B501213E
:100B00001C2000F06BFC01211D48FFF72FFF4FF464
:100B10008050ADF8000048208DF803006946194860
:100B2000FFF798FE0220ADF8000048208DF8030082
:100B300069461548FFF78EFE4FF40070ADF80000CF
:100B400048208DF8030069461048FFF783FE012016
:100B5000ADF8000028208DF8030069460A48FFF729
:100B600079FE02210848FFF754FF4FF480510548F1
:100B7000FFF74FFF4FF400710448FFF74AFF08BD2D
:100B8000000230000010014000080140000C01404C
:100B900008B50121242000F021FC4FF48070ADF84D
:100BA000000010208DF8030003208DF80200694634
:100BB0000948FFF74FFE4FF480710748FFF729FF00
:100BC0000420ADF8000069460448FFF743FE042105
:100BD0000248FFF71EFF08BD000801400014014055
:100BE00010B586B004460121880400F0E7FB01211E
:100BF000082000F0F3FB4FF48060ADF80000022005
:100C00008DF8020018208DF8030069462148FFF78F
:100C100021FE04208DF803004002ADF80000694673
:100C20001C48FFF717FE01940020ADF80800ADF84E
:100C30000A00ADF80C00ADF810000C20ADF80E0065
:100C400001A9154801F00EF8012240F22551124881
:100C500000F0E2FF0121104800F09BFF40210E4808
:100C600000F08EFF4FF4A06000F0F6F927208DF819
:100C7000140000208DF815008DF8160001208DF865
:100C8000170005A800F0B0F900200449488606B016
:100C900010BD0000000C01400048004094000020FE
:100CA00070B505460024572000F078FB022001F0C3
:100CB000EFF8284600F072FB022001F0E9F826E088
:100CC0001A480078752802D0002019490870184881
:100CD0000078082810D10020154908701348C07901
:100CE000072808D1114880781049497840EA012046
:100CF000104908800CE00BE0601CC4B2022001F037
:100D0000C7F80A2C03DD00200949087000E0D7E786
:100D100000BF08480088B0F57A7F03DD4FF47A7091
:100D2000044908800348008870BD0000800000204E
:100D30000600002008000020102873D2DFE800F031
:100D4000D50814202E3C4A586673818F9DABB9C7D5
:100D5000674A12680AB9012200E00022644B1A6057
:100D6000644AC2F89411C1E0634A12680AB90122C8
:100D700000E00022604B1A60604AC2F89C11B5E0A6
:100D80005D4A083A12680AB9012200E000225A4B73
:100D9000083B1A60594AC2F89411A7E0564A103A23
:100DA00012680AB9012200E00022534B103B1A607E
:100DB000524AC2F88C1199E04F4A143212680AB9AB
:100DC000012200E000224C4B14331A604B4AC2F857
:100DD000B0118BE0464A083A12680AB9012200E0D5
:100DE0000022434B083B1A60424AC2F88C117DE056
:100DF0003F4A0C3A12680AB9012200E000223C4B3B
:100E00000C3B1A603B4AC2F880116FE03C4A126802
:100E10000AB9012200E00022394B1A60394AC2F8AF
:100E2000B81163E061E0324A083212680AB901225F
:100E300000E000222E4B08331A602E4AC2F89C11A3
:100E400054E02B4A103212680AB9012200E0002255
:100E5000274B10331A60274AC2F8A41146E0284AEB
:100E6000303A12680AB9012200E00022244B303BDC
:100E70001A60244AC2F8841138E01D4A1C321268F4
:100E80000AB9012200E00022194B1C331A60194AEA
:100E9000C2F8A8112AE01A4A203A12680AB90122B7
:100EA00000E00022164B203B1A60164AC2F88C1153
:100EB0001CE0134A183A12680AB9012200E0002225
:100EC0000F4B183B1A600F4AC2F894110EE00C4AFF
:100ED000103A12680AB9012200E00022084B103BC8
:100EE0001A60084AC2F89C1100E000BF00BF7047BA
:100EF000900122420000224298012142000021423A
:100F0000B08121420080214230B50546002400BF57
:100F10000BE005EB85022244D1B205EB85022244A9
:100F2000D0B200F005F8601CC4B2052CF1DB30BD76
:100F300030B505460C46284830F81500B0F5AD7FB1
:100F400000DB30BD244830F81500244931F8141076
:100F500088423ED0224830F81400401C204921F835
:100F60001400084630F8140032282CDD002021F847
:100F70001400194830F81500184931F81410884247
:100F800003DA0120174908700AE0134830F8150009
:100F9000124931F81410884202DD0020114908700E
:100FA00010480078012807D10C4830F81400401E82
:100FB0000A4921F8140006E0084830F81400401CE3
:100FC000064921F81400611CC8B206490978FFF7E8
:100FD000B3FE00BFB5E70000040100206000002060
:100FE000400000200400002070B5002100230F22E3
:100FF000C47804B3154C246804F4E064C4F5E064D8
:10100000210AC1F10403CA40447804FA03F1847848
:101010001440214309010E4C0678A155047804F0D0
:101020001F050124AC4005786D11AD0005F1E025E8
:10103000C5F8004109E0047804F01F050124AC4024
:10104000044D0678761145F8264070BD0CED00E0A1
:1010500000E400E080E100E002490143024A11603F
:10106000704700000000FA050CED00E070B50024A8
:1010700018E004F1B000002100F03DF9002108461D
:1010800000F039F90021102000F035F9002505E0C5
:101090000121002000F02FF9681CC5B2802DF7DB7C
:1010A000601CC4B2082CE4DB70BD000008B501214F
:1010B000202000F093F90420ADF8000010208DF8F6
:1010C000030003208DF8020069464748FFF7C2FB82
:1010D00004214548FFF79DFC0121082000F07EF91E
:1010E0004FF43040ADF8000010208DF803000320CD
:1010F0008DF8020069463D48FFF7ACFB4FF44051C4
:101100003A48FFF786FCC82000F0C2FE0021AE205E
:1011100000F0F1F80021084600F0EDF80021102061
:1011200000F0E9F80021402000F0E5F80021B020AF
:1011300000F0E1F80021812000F0DDF80021FF201F
:1011400000F0D9F80021A12000F0D5F80021A62058
:1011500000F0D1F80021A82000F0CDF800213F20B8
:1011600000F0C9F80021C82000F0C5F80021D32004
:1011700000F0C1F80021084600F0BDF80021D5209C
:1011800000F0B9F80021802000F0B5F80021D82047
:1011900000F0B1F80021052000F0ADF80021D920C1
:1011A00000F0A9F80021F12000F0A5F80021DA20D4
:1011B00000F0A1F80021122000F09DF80021DB20B2
:1011C00000F099F80021302000F095F800218D20E2
:1011D00000F091F80021142000F08DF80021AF20DC
:1011E00000F089F808BD000000140140000C014027
:1011F00070B504460D4605F1B000002100F07BF803
:10120000102141EA1410002100F075F804F00F00DD
:10121000002100F070F870BD2DE9F04707460E463A
:101220009046994600250024A8F12000C5B27F2FE2
:1012300002DD0027B01CC6B2B9F1100F24D131462F
:101240003846FFF7D5FF002408E004EB0511194AE2
:10125000505C012100F04FF8601CC4B2082CF4DB94
:10126000701CC1B23846FFF7C3FF002409E004EB4D
:10127000051108310F4A505C012100F03CF8601C58
:10128000C4B2082CF3DB12E031463846FFF7B0FF5A
:1012900000240AE005EB4501074A02EB4101085D25
:1012A000012100F028F8601CC4B2062CF2DBBDE876
:1012B000F0870000DC230008B42100082DE9F0418C
:1012C00004460F461546984600260FE0AA5D4346A1
:1012D00039462046FFF7A0FF04F10800C4B2782C7D
:1012E00002DD0024B81CC7B2701CC6B2A85D00287D
:1012F000ECD1BDE8F08170B504460D461DB1E0B2F9
:1013000000F08AFD02E0E0B200F070FD70BD000068
:1013100008B501211C2000F061F84FF6FF70ADF810
:10132000000010208DF8030003208DF802006946AC
:101330001748FFF78FFA4FF6FF711548FFF767FB65
:101340004FF6FF70ADF8000010208DF80300032069
:101350008DF8020069460F48FFF77CFA4FF6FF71DF
:101360000C48FFF754FB4FF6FF70ADF8000010205B
:101370008DF8030003208DF8020069460648FFF748
:1013800069FA4FF6FF710448FFF741FB08BD000002
:101390000008014000100140000C014010B5044657
:1013A0002146054800F0CFFC00BF4021024800F074
:1013B000FCFB0028F9D010BD0048004029B1064AC6
:1013C000D2690243044BDA6104E0034AD2698243E2
:1013D000014BDA61704700000010024029B1064A53
:1013E00092690243044B9A6104E0034A9269824382
:1013F000014B9A61704700000010024030B5002197
:101400000022002400232D4D6D6805F00C0121B150
:10141000042905D0082923D105E0294D056022E0E3
:10142000274D05601FE0254D6D6805F47012234DB2
:101430006D6805F48034022505EB92421CB9214DFC
:10144000554305600BE01D4D6D6805F400351DB179
:101450001C4D5543056002E0194D5543056002E0FF
:10146000174D056000BF00BF144D6D6805F0F00119
:101470000909154D6B5C0568DD4045600F4D6D68D1
:1014800005F4E061090A104D6B5C4568DD4085603C
:101490000A4D6D6805F46051C90A0B4D6B5C4568D7
:1014A000DD40C560054D6D6805F44041890B074D71
:1014B0006B5CC568B5FBF3F5056130BD00100240FB
:1014C00000127A0000093D001600002026000020CE
:1014D00010B500F001F810BD0CB50020019000908F
:1014E0003348006840F480303149086000BF30481C
:1014F000006800F4003000900198401C01900098B2
:1015000018B90198B0F5A06FF1D12948006800F42E
:10151000003010B10120009001E000200090009800
:10152000012843D12348006840F010002149086099
:101530000846006820F0030008600846006840F094
:10154000020008601A484068194948600846406827
:1015500048600846406840F480604860084640683B
:1015600020F47C1048600846406840F4E810486069
:101570000846006840F08070086000BF0C480068B2
:1015800000F000700028F9D00948406820F00300FE
:10159000074948600846406840F00200486000BFC4
:1015A0000348406800F00C000828F9D10CBD000089
:1015B000001002400020024038B5002401208DF8C0
:1015C000000006208DF801000B208DF80200ACE031
:1015D000002409E01DF804000121FFF7ADFB012004
:1015E00000F056FC601CC4B2032CF3DB9DF8000035
:1015F00000282BD002214E48FFF700FA30BB0A200A
:1016000000F046FC07E09DF800000021FFF794FB86
:10161000052000F03DFC02214548FFF7EFF90028C6
:10162000F1D09DF80000401CC0B28DF800009DF87C
:10163000001040A0FEF7F0FD9DF80000052805DD34
:1016400000208DF800003FA0FEF7E6FD9DF80100A8
:1016500068B34FF480514148FFF7D0F938BB0A20F6
:1016600000F016FC07E09DF801000021FFF764FB85
:10167000052000F00DFC4FF480513848FFF7BEF90B
:101680000028F0D09DF80100401CC0B28DF8010088
:101690009DF8011032A0FEF7BFFD9DF801000A2859
:1016A00005DD00208DF8010031A0FEF7B5FD9DF8A5
:1016B000020068B34FF400713348FFF79FF938BB5D
:1016C0000A2000F0E5FB07E09DF802000021FFF78B
:1016D00033FB052000F0DCFB4FF400712A48FFF7D4
:1016E0008DF90028F0D09DF80200401CC0B28DF8A2
:1016F00002009DF8021025A0FEF78EFD9DF8020065
:101700000F2805DD00208DF8020024A0FEF784FDDF
:101710009DF8000048B99DF8010030B99DF802001D
:1017200018B924A0FEF778FD00E051E700BF38BDEE
:10173000000801406D69643C303E5B25645D200D0E
:101740000A000000B5E7BBFA31D7E9B3F5CABCBB64
:10175000AFCDEAB3C92E2E2E200D0A000010014095
:101760006D69643C313E5B25645D200D0A0000001C
:10177000B5E7BBFA32D7E9B3F5CABCBBAFCDEAB324
:10178000C92E2E2E200D0A00000C01406D69643C0C
:10179000323E5B25645D200D0A000000B5E7BBFA10
:1017A00033D7E9B3F5CABCBBAFCDEAB3C92E2E2EF1
:1017B000200D0A0053797374656D20496E74692099
:1017C0004F4B2E2E2E200D0A00000000042808D1B9
:1017D0004FF0E021096941F004014FF0E02211616E
:1017E00007E04FF0E021096921F004014FF0E02209
:1017F0001161704710B51348006840F001001149AD
:10180000086008464068104908400E49486008468C
:1018100000680E4908400B4908600846006820F43B
:10182000802008600846406820F4FE0048604FF4BD
:101830001F008860FFF74CFE4FF00060044908600D
:1018400010BD0000001002400000FFF8FFFFF6FE90
:1018500008ED00E038B500240121224800F0B7F877
:1018600000283ED001211F4800F0A2F81E48B0F821
:101870006400012812DD0020FFF746FB1A48B0F88B
:10188000640002280ADD0120FFF73EFB1648B0F88D
:101890006400032802DD0220FFF736FB13480088AE
:1018A000401C1249088008460088B0F5966F18DD84
:1018B0000020088000240FE00B48B0F8640000907E
:1018C0000B4830F814300B4830F8142021460AA099
:1018D000FEF7A2FC601CC4B20F2CEDDB16A0FEF7D5
:1018E0009BFC38BD00040040940000200000002054
:1018F0006000002004010020206964203C20256451
:10190000203E20206C656E677468203C25643E2074
:101910006D6C656E677468203C202564203E202035
:1019200064656C61795F74696D6573203C25643E04
:101930000D0A2020000000002E2E2E2E2E74696D20
:101940006573206F75742E2E2E2E0D0A0000000078
:101950007FB505460C4601210220FFF72FFDADF8AB
:101960000850ADF804400020ADF80A00ADF80600BC
:1019700001A90E4800F046F8012211460B4800F07C
:1019800037F81D208DF8000000208DF8010003209D
:101990008DF8020001208DF803006846FFF724FB54
:1019A0000121024800F007F87FBD0000000400405C
:1019B000CA430282704721B1028842F001020280CC
:1019C00004E002884FF6FE731A400280704730B57B
:1019D0000246002000230024158A05EA01039589A8
:1019E00005EA010413B10CB1012000E0002030BD74
:1019F0001AB183890B43838102E083898B438381FE
:101A000070470000002202881D4B98420ED01D4BEB
:101A100098420BD0B0F1804F08D01B4B984205D0B4
:101A20001A4B984202D01A4B984204D14FF68F734A
:101A30001A404B881A43174B984207D0164B9842CE
:101A400004D04FF6FF431A40CB881A4302808B889C
:101A500083850B8803850A4B98420BD0094B98422B
:101A600008D00E4B984205D00D4B984202D00D4B3A
:101A7000984201D10B7A03860123838270470000CC
:101A8000002C0140003401400004004000080040E8
:101A9000000C0040001000400014004000400140D5
:101AA000004401400048014030B50346002006E0F4
:101AB00031F81040851823F81540441CE0B2052881
:101AC000F6DB30BD10B540F225511D4800F07AF824
:101AD00010B31B4800F032F9C4B21A48008800F471
:101AE0000040C8B91748008800F4804060B10A2C53
:101AF00003D000201349088020E01248008840F4F9
:101B000000401049088019E00D2C06D10D480088CE
:101B100040F480400B49088010E00A480088C0F378
:101B20000D0009490C5407480088401C05490880ED
:101B300008460088C72801DD0020088010BD00008D
:101B400000380140140000202201002010B540F2AE
:101B50002551084800F036F858B1064800F0EEF874
:101B6000C1B2054802780078401C034B1870034846
:101B7000815410BD00480040060000208000002075
:101B800001F40072B2F5007F00D100BFCA430280A9
:101B9000704721B1828942F40052828104E0828937
:101BA0004DF6FF731A408281704702460020B1F55E
:101BB000007F00D100BF13880B400BB1012000E073
:101BC0000020704770B50246002400230025002045
:101BD00040F66A16B14200D100BFC1F3421501F0D0
:101BE0001F03012606FA03F3012D02D19689334023
:101BF00006E0022D02D1168A334001E0968A334076
:101C00000C12012606FA04F41688344013B10CB104
:101C1000012000E0002070BDF0B50346002400263E
:101C20000025002040F66A17B94200D100BF1846CF
:101C3000C1F3421401F01F06012707FA06F5012C33
:101C400001D10C3004E0022C01D1103000E014303E
:101C50001AB107682F43076002E00768AF430760C7
:101C6000F0BD00002DE9F04786B005460E46002481
:101C7000A24600BFA1460027B08900B100BF2F4691
:101C80002C8A4CF6FF700440F08804432C82AC8907
:101C90004EF6F3100440B088318908437189084337
:101CA0000443AC81AC8A4FF6FF400440B089044342
:101CB000AC8201A8FFF7A2FB1F48874202D1DDF8E2
:101CC00010A001E0DDF80CA0A88900F4004040B1AC
:101CD0000AEBCA0000EB0A1031684900B0FBF1F8CA
:101CE00007E00AEBCA0000EB0A1031688900B0FB7C
:101CF000F1F86420B8FBF0F004012009642101FB35
:101D00001089A88900F4004040B1322000EBC900DE
:101D1000B0FBF1F000F00700044308E0322000EBD4
:101D200009106421B0FBF1F000F00F0004432C8196
:101D300006B0BDE8F0870000003801400146888801
:101D4000C0F308007047C1F30802828070470000AA
:101D50000020014908607047082C004010B57F2022
:101D600000F00EF8FFF7F4FF0448006808B90120FE
:101D700000E000200149086010BD00008881224277
:101D800000F07F01014A116070470000002C004004
:101D90002DE9F04105462C464FF400511248FEF75C
:101DA00036FE00261CE0274607F08007802F04D16E
:101DB00039020D48FEF72DFE04E04FF400410A48B9
:101DC000FEF725FE6006040E4FF400510648FEF7AC
:101DD00020FE4FF400510448FEF719FE701CC6B2F5
:101DE000082EE0DBBDE8F081000C014010B5044690
:101DF000FEF712FE7820FFF7CBFFFEF739FE00203A
:101E0000FFF7C6FFFEF734FE2046FFF7C1FFFEF7DF
:101E10002FFEFEF719FE10BD10B50446FEF7FCFDBF
:101E20007820FFF7B5FFFEF723FE4020FFF7B0FF55
:101E3000FEF71EFE2046FFF7ABFFFEF719FEFEF78A
:101E400003FE10BD014600BF7047000010B56FF0E3
:101E50000400FFF7BBFC0A4800680A49B0FBF1F038
:101E6000094908700846007800EB4001C1EBC0103A
:101E70004FF6FF7101EAC0000449088010BD000060
:101E80002C00002000127A000A0000200C00002024
:101E90000146114A12884A434FF0E0235A6100225A
:101EA0009A611A46126942F001021A6100BF4FF0AE
:101EB000E022106900F001021AB100F48032002A19
:101EC000F5D04FF0E022126922F001024FF0E0233A
:101ED0001A6100229A6170470C00002000BF054A79
:101EE000128802F04002002AF9D0C2B2014B1B1D39
:101EF0001A807047003801402DE9FC5F4FF000095F
:101F00004FF47A7A002557E0002400270EE0691C80
:101F1000C8B2FEF7C5FE06464E4500DDB146564541
:101F200000DAB246A01984B2781CC7B2072FEEDBE4
:101F3000A4EB0A00A0EB090084B2052094FBF0F0AA
:101F4000643884B2B4F5FA7F01DD4FF4FA7404F119
:101F5000640086B2C6F5AF701FFA80F81B4830F8EF
:101F60001500A04206DD194830F81500001B1FFAC5
:101F700080FB0DE0154830F81500A04206DA134842
:101F800030F81500201A1FFA80FB01E04FF0000B1B
:101F9000BBF1030F02DD0D4820F815400B4830F867
:101FA000150043463246691CCDE900040848FEF797
:101FB00033F90026681CC5B2052DA5DB0348FEF7E2
:101FC00063FA04A0FEF728F9BDE8FC9FFA000020A0
:101FD000CC2900082D2D2D2D2D2D656E642D2D2D38
:101FE0002D2D2D2D2D0D0A0000240025FFF72EFF8D
:101FF0004FF4A060FFF730F86420FFF749FFFFF7C8
:1020000087F9FFF753F8FFF731F84FF4C870FFF77F
:102010003FFF08232CA204210020FFF74FF94FF4C3
:10202000E13000F077F84FF4E130FEF7D9FDFEF72C
:10203000AFFDFEF763FD00202849088028A0FEF7C9
:10204000EBF8FFF7B9FA40F271210620FEF72AFDFE
:10205000FFF752FFFEF725FB3B2140F2E730FFF789
:1020600077FC00212348FFF7A6FC082322A20421C5
:102070000020FFF723F925E0681CC5B2FEF70EFD2E
:102080000A20FFF705FF142D0CDD00251F4800680E
:1020900008B9012000E000201C490860601CC4B29F
:1020A000FFF72AFF1A48007820B9002400211148C0
:1020B000FFF781FC042C05DD00241548007808B1E9
:1020C000FFF71AFFD8E7000053797374656D204954
:1020D0006E69742E2E2E20200000000002000020C9
:1020E00073797374656D20696E6974202E2E2E2E9F
:1020F0002E0D0A000004004053797374656D204969
:102100006E6974204F4B212000000000888122421C
:102110000500002010B586B00446012144F20400F9
:10212000FFF75CF94FF40070ADF8140003208DF850
:10213000160018208DF8170005A91C48FEF78AFB29
:102140004FF48060ADF8140004208DF8170005A945
:102150001648FEF77FFB25208DF8000003208DF840
:1021600001008DF8020001208DF803006846FEF79B
:102170003BFF01940020ADF80800ADF80A00ADF86F
:102180000C00ADF810000C20ADF80E0001A90848B5
:10219000FFF768FD012240F225510548FFF73CFD9D
:1021A00001210348FFF7F5FC06B010BD000801400F
:1021B000003801400000000000000000002F000077
:1021C00000000700070000147F147F1400242A7FFA
:1021D0002A12006264081323003649552250000079
:1021E0000503000000001C224100000041221C00E9
:1021F0000014083E08140008083E0808000000A06B
:102200006000000808080808000060600000002066
:1022100010080402003E5149453E0000427F400044
:10222000004261514946002141454B3100181412CA
:102230007F10002745454539003C4A494930000197
:102240007109050300364949493600064949291EE6
:102250000000363600000000563600000008142248
:102260004100001414141414000041221408000248
:102270000151090600324959513E007C1211127C6D
:10228000007F49494936003E41414122007F41419A
:10229000221C007F49494941007F09090901003E8C
:1022A0004149497A007F0808087F0000417F4100CA
:1022B000002040413F01007F08142241007F404040
:1022C0004040007F020C027F007F0408107F003E28
:1022D0004141413E007F09090906003E4151215E0E
:1022E000007F091929460046494949310001017F0B
:1022F0000101003F4040403F001F2040201F003FA1
:102300004038403F00631408146300070870080752
:1023100000615149454300007F41410000552A5565
:102320002A55000041417F000004020102040040E0
:102330004040404000000102040000205454547802
:10234000007F484444380038444444200038444422
:10235000487F00385454541800087E0901020018C0
:10236000A4A4A47C007F080404780000447D4000FD
:10237000004080847D00007F102844000000417FE1
:102380004000007C04180478007C080404780038BD
:102390004444443800FC242424180018242418FC45
:1023A000007C0804040800485454542000043F44AE
:1023B0004020003C4040207C001C2040201C003C71
:1023C0004030403C004428102844001CA0A0A07CC1
:1023D000004464544C4414141414141400000000F9
:1023E000000000000000000000000000000000F8F5
:1023F00000000000000000333000000000100C0658
:10240000100C0600000000000000000040C07840F2
:10241000C0784000043F04043F040400007088FCBE
:1024200008300000001820FF211E0000F008F00016
:10243000E018000000211C031E211E0000F0088887
:10244000700000001E2123241927211010160E00F1
:10245000000000000000000000000000000000E09C
:1024600018040200000000071820400000020418B1
:10247000E00000000040201807000000404080F00D
:10248000804040000202010F01020200000000F043
:10249000000000000101011F010101000000000017
:1024A0000000000080B0700000000000000000008C
:1024B0000000000000010101010101010000000015
:1024C00000000000003030000000000000000000AC
:1024D00080601804006018060100000000E0100889
:1024E0000810E000000F102020100F00001010F85E
:1024F000000000000020203F20200000007008089D
:10250000088870000030282422213000003008881C
:10251000884830000018202020110E000000C02044
:1025200010F8000000070424243F240000F8088865
:10253000880808000019212020110E0000E01088F2
:1025400088180000000F112020110E000038080824
:10255000C83808000000003F000000000070880834
:1025600008887000001C222121221C0000E01008B5
:102570000810E0000000312222110F00000000C00E
:10258000C0000000000000303000000000000080AB
:10259000000000000000806000000000000080409B
:1025A00020100800000102040810200040404040B4
:1025B0004040400004040404040404000008102007
:1025C000408000000020100804020100007048084C
:1025D0000808F0000000003036010000C030C828B4
:1025E000E810E0000718272423140B000000C0386F
:1025F000E0000000203C23020227382008F88888E9
:1026000088700000203F202020110E00C0300808F4
:1026100008083800071820202010080008F80808CB
:102620000810E000203F202020100F0008F88888C4
:10263000E8081000203F20202320180008F8888890
:10264000E8081000203F200003000000C030080808
:102650000838000007182020221E020008F8080091
:102660000008F808203F210101213F20000808F858
:10267000080800000020203F20200000000008087B
:10268000F8080800C08080807F00000008F888C03B
:1026900028180800203F20012638200008F80800EC
:1026A00000000000203F20202020300008F8F80023
:1026B000F8F80800203F003F003F200008F830C035
:1026C0000008F808203F200007183F00E010080825
:1026D0000810E0000F10202020100F0008F8080854
:1026E0000808F000203F210101010000E010080867
:1026F0000810E0000F18242438504F0008F888888C
:1027000088887000203F2000030C3020007088086B
:10271000080838000038202121221C00180808F879
:10272000080818000000203F2000000008F80800FA
:102730000008F808001F202020201F0008788800CB
:1027400000C83808000007380E010000F80800F83B
:102750000008F800033C0700073C030008186880E5
:102760008068180820302C03032C30200838C8005B
:10277000C83808000000203F2000000010080808AA
:10278000C83808002038262120201800000000FE4C
:10279000020202000000007F40404000000C30C0F8
:1027A00000000000000000010638C0000002020224
:1027B000FE000000004040407F00000000000402D6
:1027C0000202040000000000000000000000000001
:1027D00000000000808080808080808000020204F1
:1027E00000000000000000000000000000008080E9
:1027F000808000000019242222223F2008F8008057
:1028000080000000003F112020110E000000008019
:1028100080800000000E11202020110000000080A8
:102820008088F800000E112020103F2000008080DA
:1028300080800000001F222222221300008080F0EE
:10284000888888180020203F202000000000808019
:1028500080808000006B94949493600008F800805E
:1028600080800000203F210000203F2000809898B9
:10287000000000000020203F202000000000008019
:102880009898000000C08080807F000008F8000059
:1028900080808000203F24022D302000000808F8AE
:1028A000000000000020203F202000008080808069
:1028B00080808000203F20003F20003F80800080FB
:1028C00080800000203F210000203F200000808009
:1028D00080800000001F202020201F0080800080BA
:1028E0008000000080FFA12020110E000000008069
:1028F00080808000000E112020A0FF80808080005A
:102900008080800020203F21200001000000808086
:10291000808080000033242424241900008080E07B
:10292000808000000000001F202000008080000048
:1029300000808000001F202020103F208080800029
:102940000080808000010E30080601008080008039
:10295000008080800F300C030C300F00008080005E
:10296000808080000020312E0E3120008080800089
:102970000080808080818E70180601000080808039
:10298000808080000021302C2221300000000000D7
:10299000807C020200000000003F40400000000078
:1029A000FF00000000000000FF0000000002027CA9
:1029B000800000000040403F0000000000060101D0
:1029C00002020404000000000000000069643C25CD
:1029D000643E20B2E2B5C3B8DFB6C8203C25643EF1
:1029E00020CEEFCCE5B8DFB6C8203C25643E20B54C
:1029F000E7BBFAD2C6B6AFB8DFB6C8203C25643E06
:102A000020CAB5B2E2B8DFB6C8203C25643E200D2E
:102A10000A000000342A00080000002040000000E6
:102A20006C010008742A0008400000201008000013
:102A30008801000800000000000000000000000005
:102A40000000000000000000000000000000010283
:102A50000304010203040607080902040608000033
:102A600000A24A040000000000000000010203046C
:042A70000607080944
:0400000508000131BD
:00000001FF
